{
  "contractName": "EthSwap",
  "abi": [
    {
      "constant": true,
      "inputs": [],
      "name": "name",
      "outputs": [
        {
          "name": "",
          "type": "string"
        }
      ],
      "payable": false,
      "stateMutability": "view",
      "type": "function"
    },
    {
      "constant": true,
      "inputs": [],
      "name": "buyrate",
      "outputs": [
        {
          "name": "",
          "type": "uint256"
        }
      ],
      "payable": false,
      "stateMutability": "view",
      "type": "function"
    },
    {
      "constant": true,
      "inputs": [],
      "name": "sellrate",
      "outputs": [
        {
          "name": "",
          "type": "uint256"
        }
      ],
      "payable": false,
      "stateMutability": "view",
      "type": "function"
    },
    {
      "constant": true,
      "inputs": [],
      "name": "token",
      "outputs": [
        {
          "name": "",
          "type": "address"
        }
      ],
      "payable": false,
      "stateMutability": "view",
      "type": "function"
    },
    {
      "inputs": [
        {
          "name": "_token",
          "type": "address"
        }
      ],
      "payable": false,
      "stateMutability": "nonpayable",
      "type": "constructor"
    },
    {
      "anonymous": false,
      "inputs": [
        {
          "indexed": false,
          "name": "account",
          "type": "address"
        },
        {
          "indexed": false,
          "name": "token",
          "type": "address"
        },
        {
          "indexed": false,
          "name": "amount",
          "type": "uint256"
        },
        {
          "indexed": false,
          "name": "sellrate",
          "type": "uint256"
        }
      ],
      "name": "TokensPurchased",
      "type": "event"
    },
    {
      "anonymous": false,
      "inputs": [
        {
          "indexed": false,
          "name": "account",
          "type": "address"
        },
        {
          "indexed": false,
          "name": "token",
          "type": "address"
        },
        {
          "indexed": false,
          "name": "amount",
          "type": "uint256"
        },
        {
          "indexed": false,
          "name": "buyrate",
          "type": "uint256"
        }
      ],
      "name": "TokensSold",
      "type": "event"
    },
    {
      "constant": false,
      "inputs": [],
      "name": "buyTokens",
      "outputs": [],
      "payable": true,
      "stateMutability": "payable",
      "type": "function"
    },
    {
      "constant": false,
      "inputs": [
        {
          "name": "_amount",
          "type": "uint256"
        }
      ],
      "name": "sellTokens",
      "outputs": [],
      "payable": false,
      "stateMutability": "nonpayable",
      "type": "function"
    }
  ],
  "bytecode": "0x60806040526040805190810160405280601e81526020017f4574685377617020446563656e7472616c697a65642045786368616e676500008152506000908051906020019061004f9291906100e0565b506106f46002556106e060035534801561006857600080fd5b50604051602080610af28339810180604052602081101561008857600080fd5b810190808051906020019092919050505080600160006101000a81548173ffffffffffffffffffffffffffffffffffffffff021916908373ffffffffffffffffffffffffffffffffffffffff16021790555050610185565b828054600181600116156101000203166002900490600052602060002090601f016020900481019282601f1061012157805160ff191683800117855561014f565b8280016001018555821561014f579182015b8281111561014e578251825591602001919060010190610133565b5b50905061015c9190610160565b5090565b61018291905b8082111561017e576000816000905550600101610166565b5090565b90565b61095e806101946000396000f3fe608060405260043610610078576000357c0100000000000000000000000000000000000000000000000000000000900463ffffffff16806306fdde031461007d5780636c11bcd31461010d578063a87d75c814610148578063d0febe4c14610173578063d1fa38801461017d578063fc0c546a146101a8575b600080fd5b34801561008957600080fd5b506100926101ff565b6040518080602001828103825283818151815260200191508051906020019080838360005b838110156100d25780820151818401526020810190506100b7565b50505050905090810190601f1680156100ff5780820380516001836020036101000a031916815260200191505b509250505060405180910390f35b34801561011957600080fd5b506101466004803603602081101561013057600080fd5b810190808035906020019092919050505061029d565b005b34801561015457600080fd5b5061015d610624565b6040518082815260200191505060405180910390f35b61017b61062a565b005b34801561018957600080fd5b50610192610906565b6040518082815260200191505060405180910390f35b3480156101b457600080fd5b506101bd61090c565b604051808273ffffffffffffffffffffffffffffffffffffffff1673ffffffffffffffffffffffffffffffffffffffff16815260200191505060405180910390f35b60008054600181600116156101000203166002900480601f0160208091040260200160405190810160405280929190818152602001828054600181600116156101000203166002900480156102955780601f1061026a57610100808354040283529160200191610295565b820191906000526020600020905b81548152906001019060200180831161027857829003601f168201915b505050505081565b80600160009054906101000a900473ffffffffffffffffffffffffffffffffffffffff1673ffffffffffffffffffffffffffffffffffffffff166370a08231336040518263ffffffff167c0100000000000000000000000000000000000000000000000000000000028152600401808273ffffffffffffffffffffffffffffffffffffffff1673ffffffffffffffffffffffffffffffffffffffff16815260200191505060206040518083038186803b15801561035957600080fd5b505afa15801561036d573d6000803e3d6000fd5b505050506040513d602081101561038357600080fd5b8101908080519060200190929190505050101515156103a157600080fd5b6000600254828115156103b057fe5b049050803073ffffffffffffffffffffffffffffffffffffffff1631101515156103d957600080fd5b600160009054906101000a900473ffffffffffffffffffffffffffffffffffffffff1673ffffffffffffffffffffffffffffffffffffffff166323b872dd3330856040518463ffffffff167c0100000000000000000000000000000000000000000000000000000000028152600401808473ffffffffffffffffffffffffffffffffffffffff1673ffffffffffffffffffffffffffffffffffffffff1681526020018373ffffffffffffffffffffffffffffffffffffffff1673ffffffffffffffffffffffffffffffffffffffff1681526020018281526020019350505050602060405180830381600087803b1580156104d257600080fd5b505af11580156104e6573d6000803e3d6000fd5b505050506040513d60208110156104fc57600080fd5b8101908080519060200190929190505050503373ffffffffffffffffffffffffffffffffffffffff166108fc829081150290604051600060405180830381858888f19350505050158015610554573d6000803e3d6000fd5b507f697c42d55a5e1fed3f464ec6f38b32546a0bd368dc8068b065c67566d73f329033600160009054906101000a900473ffffffffffffffffffffffffffffffffffffffff1684600354604051808573ffffffffffffffffffffffffffffffffffffffff1673ffffffffffffffffffffffffffffffffffffffff1681526020018473ffffffffffffffffffffffffffffffffffffffff1673ffffffffffffffffffffffffffffffffffffffff16815260200183815260200182815260200194505050505060405180910390a15050565b60035481565b60006003543402905080600160009054906101000a900473ffffffffffffffffffffffffffffffffffffffff1673ffffffffffffffffffffffffffffffffffffffff166370a08231306040518263ffffffff167c0100000000000000000000000000000000000000000000000000000000028152600401808273ffffffffffffffffffffffffffffffffffffffff1673ffffffffffffffffffffffffffffffffffffffff16815260200191505060206040518083038186803b1580156106ef57600080fd5b505afa158015610703573d6000803e3d6000fd5b505050506040513d602081101561071957600080fd5b81019080805190602001909291905050501015151561073757600080fd5b600160009054906101000a900473ffffffffffffffffffffffffffffffffffffffff1673ffffffffffffffffffffffffffffffffffffffff1663a9059cbb33836040518363ffffffff167c0100000000000000000000000000000000000000000000000000000000028152600401808373ffffffffffffffffffffffffffffffffffffffff1673ffffffffffffffffffffffffffffffffffffffff16815260200182815260200192505050602060405180830381600087803b1580156107fc57600080fd5b505af1158015610810573d6000803e3d6000fd5b505050506040513d602081101561082657600080fd5b8101908080519060200190929190505050507f6faf93231a456e552dbc9961f58d9713ee4f2e69d15f1975b050ef0911053a7b33600160009054906101000a900473ffffffffffffffffffffffffffffffffffffffff1683600254604051808573ffffffffffffffffffffffffffffffffffffffff1673ffffffffffffffffffffffffffffffffffffffff1681526020018473ffffffffffffffffffffffffffffffffffffffff1673ffffffffffffffffffffffffffffffffffffffff16815260200183815260200182815260200194505050505060405180910390a150565b60025481565b600160009054906101000a900473ffffffffffffffffffffffffffffffffffffffff168156fea165627a7a72305820c97100ad0445acbcbf96b0990e96f655f91c576795c93ee4cefbe98fcd84d6d20029",
  "source": "//SPDX-License-Identifier: UNLICENSED\r\npragma solidity >= 0.5.0;\r\n\r\nimport \"./Token.sol\";\r\n\r\ncontract EthSwap {\r\n  string public name = \"EthSwap Decentralized Exchange\";\r\n  Token public token;\r\n  uint public sellrate = 1780;\r\n  uint public buyrate = 1760;\r\n\r\n  event TokensPurchased(\r\n    address account,\r\n    address token,\r\n    uint amount,\r\n    uint sellrate\r\n  \r\n  );\r\n\r\n  event TokensSold(\r\n    address account,\r\n    address token,\r\n    uint amount,\r\n    uint buyrate\r\n  );\r\n\r\n  constructor(Token _token) public {\r\n    token = _token;\r\n  }\r\n\r\n  function buyTokens() public payable {\r\n    // Calculate the number of tokens to buy\r\n    uint tokenAmount = msg.value * buyrate;\r\n\r\n    // Require that EthSwap has enough token\r\n    require(token.balanceOf(address(this)) >= tokenAmount);\r\n\r\n    // Transfer tokens to the user\r\n    token.transfer(msg.sender, tokenAmount);\r\n\r\n    // Emit an event\r\n    emit TokensPurchased(msg.sender, address(token), tokenAmount, sellrate);\r\n  }\r\n\r\n  function sellTokens(uint _amount) public {\r\n    // User can't sell more tokens than they have\r\n    require(token.balanceOf(msg.sender) >= _amount);\r\n\r\n    // Calculate the amount of Ether to redeem\r\n    uint etherAmount = _amount / sellrate;\r\n\r\n    // Require that EthSwap has enough Ether\r\n    require(address(this).balance >= etherAmount);\r\n\r\n    // Perform sale\r\n    token.transferFrom(msg.sender, address(this), _amount);\r\n    msg.sender.transfer(etherAmount);\r\n\r\n    // Emit an event\r\n    emit TokensSold(msg.sender, address(token), _amount, buyrate);\r\n  }\r\n\r\n}",
  "sourcePath": "C:/Projects/erebor/frontend/src/contracts/EthSwap.sol",
  "compiler": {
    "name": "solc",
    "version": "0.5.0+commit.1d4f565a.Emscripten.clang"
  },
  "schemaVersion": "3.3.4",
  "updatedAt": "2021-03-23T13:31:16.337Z",
  "networkType": "ethereum",
  "devdoc": {
    "methods": {}
  },
  "userdoc": {
    "methods": {}
  }
}